{
  "contractName": "ZombieAttack",
  "abi": [
    {
      "constant": false,
      "inputs": [
        {
          "name": "_zombieId",
          "type": "uint256"
        }
      ],
      "name": "levelUp",
      "outputs": [],
      "payable": true,
      "stateMutability": "payable",
      "type": "function"
    },
    {
      "constant": false,
      "inputs": [
        {
          "name": "_zombieId",
          "type": "uint256"
        },
        {
          "name": "_kittyId",
          "type": "uint256"
        }
      ],
      "name": "feedOnKitty",
      "outputs": [],
      "payable": false,
      "stateMutability": "nonpayable",
      "type": "function"
    },
    {
      "constant": true,
      "inputs": [
        {
          "name": "",
          "type": "uint256"
        }
      ],
      "name": "zombies",
      "outputs": [
        {
          "name": "name",
          "type": "string"
        },
        {
          "name": "dna",
          "type": "uint256"
        },
        {
          "name": "level",
          "type": "uint32"
        },
        {
          "name": "readyTime",
          "type": "uint32"
        },
        {
          "name": "winCount",
          "type": "uint16"
        },
        {
          "name": "lossCount",
          "type": "uint16"
        }
      ],
      "payable": false,
      "stateMutability": "view",
      "type": "function"
    },
    {
      "constant": false,
      "inputs": [],
      "name": "withdraw",
      "outputs": [],
      "payable": false,
      "stateMutability": "nonpayable",
      "type": "function"
    },
    {
      "constant": true,
      "inputs": [
        {
          "name": "_owner",
          "type": "address"
        }
      ],
      "name": "getZombiesByOwner",
      "outputs": [
        {
          "name": "",
          "type": "uint256[]"
        }
      ],
      "payable": false,
      "stateMutability": "view",
      "type": "function"
    },
    {
      "constant": true,
      "inputs": [
        {
          "name": "",
          "type": "uint256"
        }
      ],
      "name": "zombieToOwner",
      "outputs": [
        {
          "name": "",
          "type": "address"
        }
      ],
      "payable": false,
      "stateMutability": "view",
      "type": "function"
    },
    {
      "constant": false,
      "inputs": [
        {
          "name": "_address",
          "type": "address"
        }
      ],
      "name": "setKittyContractAddress",
      "outputs": [],
      "payable": false,
      "stateMutability": "nonpayable",
      "type": "function"
    },
    {
      "constant": false,
      "inputs": [
        {
          "name": "_zombieId",
          "type": "uint256"
        },
        {
          "name": "_newDna",
          "type": "uint256"
        }
      ],
      "name": "changeDna",
      "outputs": [],
      "payable": false,
      "stateMutability": "nonpayable",
      "type": "function"
    },
    {
      "constant": false,
      "inputs": [],
      "name": "renounceOwnership",
      "outputs": [],
      "payable": false,
      "stateMutability": "nonpayable",
      "type": "function"
    },
    {
      "constant": false,
      "inputs": [
        {
          "name": "_name",
          "type": "string"
        }
      ],
      "name": "createRandomZombie",
      "outputs": [],
      "payable": false,
      "stateMutability": "nonpayable",
      "type": "function"
    },
    {
      "constant": true,
      "inputs": [],
      "name": "owner",
      "outputs": [
        {
          "name": "",
          "type": "address"
        }
      ],
      "payable": false,
      "stateMutability": "view",
      "type": "function"
    },
    {
      "constant": true,
      "inputs": [],
      "name": "isOwner",
      "outputs": [
        {
          "name": "",
          "type": "bool"
        }
      ],
      "payable": false,
      "stateMutability": "view",
      "type": "function"
    },
    {
      "constant": false,
      "inputs": [
        {
          "name": "_zombieId",
          "type": "uint256"
        },
        {
          "name": "_newName",
          "type": "string"
        }
      ],
      "name": "changeName",
      "outputs": [],
      "payable": false,
      "stateMutability": "nonpayable",
      "type": "function"
    },
    {
      "constant": false,
      "inputs": [
        {
          "name": "_fee",
          "type": "uint256"
        }
      ],
      "name": "setLevelUpFee",
      "outputs": [],
      "payable": false,
      "stateMutability": "nonpayable",
      "type": "function"
    },
    {
      "constant": false,
      "inputs": [
        {
          "name": "_zombieId",
          "type": "uint256"
        }
      ],
      "name": "levelDown",
      "outputs": [],
      "payable": true,
      "stateMutability": "payable",
      "type": "function"
    },
    {
      "constant": false,
      "inputs": [
        {
          "name": "newOwner",
          "type": "address"
        }
      ],
      "name": "transferOwnership",
      "outputs": [],
      "payable": false,
      "stateMutability": "nonpayable",
      "type": "function"
    },
    {
      "anonymous": false,
      "inputs": [
        {
          "indexed": false,
          "name": "zombieId",
          "type": "uint256"
        },
        {
          "indexed": false,
          "name": "name",
          "type": "string"
        },
        {
          "indexed": false,
          "name": "dna",
          "type": "uint256"
        }
      ],
      "name": "NewZombie",
      "type": "event"
    },
    {
      "anonymous": false,
      "inputs": [
        {
          "indexed": true,
          "name": "previousOwner",
          "type": "address"
        },
        {
          "indexed": true,
          "name": "newOwner",
          "type": "address"
        }
      ],
      "name": "OwnershipTransferred",
      "type": "event"
    },
    {
      "constant": false,
      "inputs": [
        {
          "name": "_zombieId",
          "type": "uint256"
        },
        {
          "name": "_targetId",
          "type": "uint256"
        }
      ],
      "name": "attack",
      "outputs": [],
      "payable": false,
      "stateMutability": "nonpayable",
      "type": "function"
    }
  ],
  "bytecode": "0x60806040526010600155600154600a0a6002556201518060035566038d7ea4c6800060085560006009556046600a55336000806101000a81548173ffffffffffffffffffffffffffffffffffffffff021916908373ffffffffffffffffffffffffffffffffffffffff1602179055506000809054906101000a900473ffffffffffffffffffffffffffffffffffffffff1673ffffffffffffffffffffffffffffffffffffffff16600073ffffffffffffffffffffffffffffffffffffffff167f8be0079c531659141344cd1fd0a4f28419497f9722a3daafe3b4186f6b6457e060405160405180910390a3611cf3806100f96000396000f3006080604052600436106100f1576000357c0100000000000000000000000000000000000000000000000000000000900463ffffffff1680630ce90ec2146100f657806317a7f4cc146101165780632052465e1461014d5780633ccfd60b1461023e5780634412e10414610255578063528b7b8f146102ed5780635f4623f11461035a5780635faf28801461039d578063715018a6146103d45780637bff0a01146103eb5780638da5cb5b146104545780638f32d59b146104ab578063c39cbef1146104da578063ccf670f81461051f578063e14d2cee1461054c578063e1fa76381461056c578063f2fde38b146105a3575b600080fd5b610114600480360381019080803590602001909291905050506105e6565b005b34801561012257600080fd5b5061014b6004803603810190808035906020019092919080359060200190929190505050610681565b005b34801561015957600080fd5b506101786004803603810190808035906020019092919050505061082a565b60405180806020018781526020018663ffffffff1663ffffffff1681526020018563ffffffff1663ffffffff1681526020018461ffff1661ffff1681526020018361ffff1661ffff168152602001828103825288818151815260200191508051906020019080838360005b838110156101fe5780820151818401526020810190506101e3565b50505050905090810190601f16801561022b5780820380516001836020036101000a031916815260200191505b5097505050505050505060405180910390f35b34801561024a57600080fd5b50610253610949565b005b34801561026157600080fd5b50610296600480360381019080803573ffffffffffffffffffffffffffffffffffffffff1690602001909291905050506109c9565b6040518080602001828103825283818151815260200191508051906020019060200280838360005b838110156102d95780820151818401526020810190506102be565b505050509050019250505060405180910390f35b3480156102f957600080fd5b5061031860048036038101908080359060200190929190505050610afb565b604051808273ffffffffffffffffffffffffffffffffffffffff1673ffffffffffffffffffffffffffffffffffffffff16815260200191505060405180910390f35b34801561036657600080fd5b5061039b600480360381019080803573ffffffffffffffffffffffffffffffffffffffff169060200190929190505050610b2e565b005b3480156103a957600080fd5b506103d26004803603810190808035906020019092919080359060200190929190505050610b85565b005b3480156103e057600080fd5b506103e9610c67565b005b3480156103f757600080fd5b50610452600480360381019080803590602001908201803590602001908080601f0160208091040260200160405190810160405280939291908181526020018383808284378201915050505050509192919290505050610d39565b005b34801561046057600080fd5b50610469610db4565b604051808273ffffffffffffffffffffffffffffffffffffffff1673ffffffffffffffffffffffffffffffffffffffff16815260200191505060405180910390f35b3480156104b757600080fd5b506104c0610ddd565b604051808215151515815260200191505060405180910390f35b3480156104e657600080fd5b5061051d60048036038101908080359060200190929190803590602001908201803590602001919091929391929390505050610e34565b005b34801561052b57600080fd5b5061054a60048036038101908080359060200190929190505050610f22565b005b61056a60048036038101908080359060200190929190505050610f3f565b005b34801561057857600080fd5b506105a16004803603810190808035906020019092919080359060200190929190505050610fc4565b005b3480156105af57600080fd5b506105e4600480360381019080803573ffffffffffffffffffffffffffffffffffffffff169060200190929190505050611259565b005b600854341415156105f657600080fd5b610640600160048381548110151561060a57fe5b906000526020600020906003020160020160009054906101000a900463ffffffff1663ffffffff1661127890919063ffffffff16565b60048281548110151561064f57fe5b906000526020600020906003020160020160006101000a81548163ffffffff021916908363ffffffff16021790555050565b6000600760009054906101000a900473ffffffffffffffffffffffffffffffffffffffff1673ffffffffffffffffffffffffffffffffffffffff1663e98b7f4d836040518263ffffffff167c01000000000000000000000000000000000000000000000000000000000281526004018082815260200191505061014060405180830381600087803b15801561071557600080fd5b505af1158015610729573d6000803e3d6000fd5b505050506040513d61014081101561074057600080fd5b81019080805190602001909291908051906020019092919080519060200190929190805190602001909291908051906020019092919080519060200190929190805190602001909291908051906020019092919080519060200190929190805190602001909291905050509091929394959697985090919293949596975090919293949596509091929394955090919293945090919293509091925090915090508091505061082583826040805190810160405280600581526020017f6b697474790000000000000000000000000000000000000000000000000000008152506112a2565b505050565b60048181548110151561083957fe5b9060005260206000209060030201600091509050806000018054600181600116156101000203166002900480601f0160208091040260200160405190810160405280929190818152602001828054600181600116156101000203166002900480156108e55780601f106108ba576101008083540402835291602001916108e5565b820191906000526020600020905b8154815290600101906020018083116108c857829003601f168201915b5050505050908060010154908060020160009054906101000a900463ffffffff16908060020160049054906101000a900463ffffffff16908060020160089054906101000a900461ffff169080600201600a9054906101000a900461ffff16905086565b6000610953610ddd565b151561095e57600080fd5b610966610db4565b90508073ffffffffffffffffffffffffffffffffffffffff166108fc3073ffffffffffffffffffffffffffffffffffffffff16319081150290604051600060405180830381858888f193505050501580156109c5573d6000803e3d6000fd5b5050565b606080600080600660008673ffffffffffffffffffffffffffffffffffffffff1673ffffffffffffffffffffffffffffffffffffffff16815260200190815260200160002054604051908082528060200260200182016040528015610a3d5781602001602082028038833980820191505090505b50925060009150600090505b600480549050811015610af0578473ffffffffffffffffffffffffffffffffffffffff166005600083815260200190815260200160002060009054906101000a900473ffffffffffffffffffffffffffffffffffffffff1673ffffffffffffffffffffffffffffffffffffffff161415610ae357808383815181101515610acc57fe5b906020019060200201818152505081806001019250505b8080600101915050610a49565b829350505050919050565b60056020528060005260406000206000915054906101000a900473ffffffffffffffffffffffffffffffffffffffff1681565b610b36610ddd565b1515610b4157600080fd5b80600760006101000a81548173ffffffffffffffffffffffffffffffffffffffff021916908373ffffffffffffffffffffffffffffffffffffffff16021790555050565b60018281600482815481101515610b9857fe5b906000526020600020906003020160020160009054906101000a900463ffffffff1663ffffffff1610151515610bcd57600080fd5b836005600082815260200190815260200160002060009054906101000a900473ffffffffffffffffffffffffffffffffffffffff1673ffffffffffffffffffffffffffffffffffffffff163373ffffffffffffffffffffffffffffffffffffffff16141515610c3b57600080fd5b83600486815481101515610c4b57fe5b9060005260206000209060030201600101819055505050505050565b610c6f610ddd565b1515610c7a57600080fd5b600073ffffffffffffffffffffffffffffffffffffffff166000809054906101000a900473ffffffffffffffffffffffffffffffffffffffff1673ffffffffffffffffffffffffffffffffffffffff167f8be0079c531659141344cd1fd0a4f28419497f9722a3daafe3b4186f6b6457e060405160405180910390a360008060006101000a81548173ffffffffffffffffffffffffffffffffffffffff021916908373ffffffffffffffffffffffffffffffffffffffff160217905550565b60006001600660003373ffffffffffffffffffffffffffffffffffffffff1673ffffffffffffffffffffffffffffffffffffffff1681526020019081526020016000205411151515610d8a57600080fd5b610d938261154f565b9050606481811515610da157fe5b0681039050610db0828261163d565b5050565b60008060009054906101000a900473ffffffffffffffffffffffffffffffffffffffff16905090565b60008060009054906101000a900473ffffffffffffffffffffffffffffffffffffffff1673ffffffffffffffffffffffffffffffffffffffff163373ffffffffffffffffffffffffffffffffffffffff1614905090565b60018381600482815481101515610e4757fe5b906000526020600020906003020160020160009054906101000a900463ffffffff1663ffffffff1610151515610e7c57600080fd5b846005600082815260200190815260200160002060009054906101000a900473ffffffffffffffffffffffffffffffffffffffff1673ffffffffffffffffffffffffffffffffffffffff163373ffffffffffffffffffffffffffffffffffffffff16141515610eea57600080fd5b8484600488815481101515610efb57fe5b90600052602060002090600302016000019190610f19929190611ba2565b50505050505050565b610f2a610ddd565b1515610f3557600080fd5b8060088190555050565b60085434141515610f4f57600080fd5b6001600482815481101515610f6057fe5b906000526020600020906003020160020160009054906101000a900463ffffffff1603600482815481101515610f9257fe5b906000526020600020906003020160020160006101000a81548163ffffffff021916908363ffffffff16021790555050565b6000806000846005600082815260200190815260200160002060009054906101000a900473ffffffffffffffffffffffffffffffffffffffff1673ffffffffffffffffffffffffffffffffffffffff163373ffffffffffffffffffffffffffffffffffffffff1614151561103757600080fd5b60048681548110151561104657fe5b9060005260206000209060030201935060048581548110151561106557fe5b9060005260206000209060030201925061107f6064611910565b9150603282111515611170576110b560018560020160089054906101000a900461ffff1661ffff16611a1390919063ffffffff16565b8460020160086101000a81548161ffff021916908361ffff16021790555061110160018560020160009054906101000a900463ffffffff1663ffffffff1661127890919063ffffffff16565b8460020160006101000a81548163ffffffff021916908363ffffffff16021790555061114d600184600201600a9054906101000a900461ffff1661ffff16611a1390919063ffffffff16565b83600201600a6101000a81548161ffff021916908361ffff160217905550611251565b61119a600185600201600a9054906101000a900461ffff1661ffff16611a1390919063ffffffff16565b84600201600a6101000a81548161ffff021916908361ffff1602179055506111e260018460020160089054906101000a900461ffff1661ffff16611a1390919063ffffffff16565b8360020160086101000a81548161ffff021916908361ffff16021790555061122e60018460020160009054906101000a900463ffffffff1663ffffffff1661127890919063ffffffff16565b8360020160006101000a81548163ffffffff021916908363ffffffff1602179055505b505050505050565b611261610ddd565b151561126c57600080fd5b61127581611a39565b50565b60008082840190508363ffffffff168163ffffffff161015151561129857fe5b8091505092915050565b600080846005600082815260200190815260200160002060009054906101000a900473ffffffffffffffffffffffffffffffffffffffff1673ffffffffffffffffffffffffffffffffffffffff163373ffffffffffffffffffffffffffffffffffffffff1614151561131357600080fd5b60048681548110151561132257fe5b9060005260206000209060030201925061133b83611b33565b151561134657600080fd5b6002548581151561135357fe5b06945060028584600101540181151561136857fe5b04915060405160200180807f6b6974747900000000000000000000000000000000000000000000000000000081525060050190506040516020818303038152906040526040518082805190602001908083835b6020831015156113e057805182526020820191506020810190506020830392506113bb565b6001836020036101000a038019825116818451168082178552505050505050905001915050604051809103902060001916846040516020018082805190602001908083835b60208310151561144a5780518252602082019150602081019050602083039250611425565b6001836020036101000a0380198251168184511680821785525050505050509050019150506040516020818303038152906040526040518082805190602001908083835b6020831015156114b3578051825260208201915060208101905060208303925061148e565b6001836020036101000a03801982511681845116808217855250505050505090500191505060405180910390206000191614156114ff5760636064838115156114f857fe5b0683030191505b61153e6040805190810160405280600681526020017f4e6f4e616d6500000000000000000000000000000000000000000000000000008152508361163d565b61154783611b5a565b505050505050565b600080826040516020018082805190602001908083835b60208310151561158b5780518252602082019150602081019050602083039250611566565b6001836020036101000a0380198251168184511680821785525050505050509050019150506040516020818303038152906040526040518082805190602001908083835b6020831015156115f457805182526020820191506020810190506020830392506115cf565b6001836020036101000a03801982511681845116808217855250505050505090500191505060405180910390206001900490506002548181151561163457fe5b06915050919050565b60006001600460c060405190810160405280868152602001858152602001600163ffffffff168152602001600354420163ffffffff168152602001600061ffff168152602001600061ffff168152509080600181540180825580915050906001820390600052602060002090600302016000909192909190915060008201518160000190805190602001906116d3929190611c22565b506020820151816001015560408201518160020160006101000a81548163ffffffff021916908363ffffffff16021790555060608201518160020160046101000a81548163ffffffff021916908363ffffffff16021790555060808201518160020160086101000a81548161ffff021916908361ffff16021790555060a082015181600201600a6101000a81548161ffff021916908361ffff1602179055505050039050336005600083815260200190815260200160002060006101000a81548173ffffffffffffffffffffffffffffffffffffffff021916908373ffffffffffffffffffffffffffffffffffffffff16021790555061181c6001600660003373ffffffffffffffffffffffffffffffffffffffff1673ffffffffffffffffffffffffffffffffffffffff16815260200190815260200160002054611b8490919063ffffffff16565b600660003373ffffffffffffffffffffffffffffffffffffffff1673ffffffffffffffffffffffffffffffffffffffff168152602001908152602001600020819055507f88f026aacbbecc90c18411df4b1185fd8d9be2470f1962f192bf84a27d0704b78184846040518084815260200180602001838152602001828103825284818151815260200191508051906020019080838360005b838110156118cf5780820151818401526020810190506118b4565b50505050905090810190601f1680156118fc5780820380516001836020036101000a031916815260200191505b5094505050505060405180910390a1505050565b60006119286001600954611b8490919063ffffffff16565b600981905550814233600954604051602001808481526020018373ffffffffffffffffffffffffffffffffffffffff1673ffffffffffffffffffffffffffffffffffffffff166c0100000000000000000000000002815260140182815260200193505050506040516020818303038152906040526040518082805190602001908083835b6020831015156119d157805182526020820191506020810190506020830392506119ac565b6001836020036101000a038019825116818451168082178552505050505050905001915050604051809103902060019004811515611a0b57fe5b069050919050565b60008082840190508361ffff168161ffff1610151515611a2f57fe5b8091505092915050565b600073ffffffffffffffffffffffffffffffffffffffff168173ffffffffffffffffffffffffffffffffffffffff1614151515611a7557600080fd5b8073ffffffffffffffffffffffffffffffffffffffff166000809054906101000a900473ffffffffffffffffffffffffffffffffffffffff1673ffffffffffffffffffffffffffffffffffffffff167f8be0079c531659141344cd1fd0a4f28419497f9722a3daafe3b4186f6b6457e060405160405180910390a3806000806101000a81548173ffffffffffffffffffffffffffffffffffffffff021916908373ffffffffffffffffffffffffffffffffffffffff16021790555050565b6000428260020160049054906101000a900463ffffffff1663ffffffff1611159050919050565b60035442018160020160046101000a81548163ffffffff021916908363ffffffff16021790555050565b6000808284019050838110151515611b9857fe5b8091505092915050565b828054600181600116156101000203166002900490600052602060002090601f016020900481019282601f10611be357803560ff1916838001178555611c11565b82800160010185558215611c11579182015b82811115611c10578235825591602001919060010190611bf5565b5b509050611c1e9190611ca2565b5090565b828054600181600116156101000203166002900490600052602060002090601f016020900481019282601f10611c6357805160ff1916838001178555611c91565b82800160010185558215611c91579182015b82811115611c90578251825591602001919060010190611c75565b5b509050611c9e9190611ca2565b5090565b611cc491905b80821115611cc0576000816000905550600101611ca8565b5090565b905600a165627a7a72305820d4a180285b85a5cd3bb018a2a852210d535878b4400c6064edf3da947eb7a3560029",
  "source": "pragma solidity ^0.4.25;\n\nimport \"./zombiehelper.sol\";\n\ncontract ZombieAttack is ZombieHelper {\n  uint randNonce = 0;\n  uint attackVictoryProbability = 70;\n\n  function randMod(uint _modulus) internal returns(uint) {\n    randNonce = randNonce.add(1);\n    return uint(keccak256(abi.encodePacked(now, msg.sender, randNonce))) % _modulus;\n  }\n\n  function attack(uint _zombieId, uint _targetId) external onlyOwnerOf(_zombieId) {\n    Zombie storage myZombie = zombies[_zombieId];\n    Zombie storage enemyZombie = zombies[_targetId];\n    uint rand = randMod(100);\n    if (rand <= 50) {\n      myZombie.winCount = myZombie.winCount.add(1);\n      myZombie.level = myZombie.level.add(1);\n      enemyZombie.lossCount = enemyZombie.lossCount.add(1);\n      //feedAndMultiply(_zombieId, enemyZombie.dna, \"zombie\");\n    } else {\n      myZombie.lossCount = myZombie.lossCount.add(1);\n      enemyZombie.winCount = enemyZombie.winCount.add(1);\n      enemyZombie.level = enemyZombie.level.add(1);\n      //_triggerCooldown(myZombie);\n    }\n  }\n}\n",
  "sourcePath": "/Users/csuftitan/Downloads/Zombie-blockchain-project/contracts/zombieattack.sol",
  "compiler": {
    "name": "solc",
    "version": "0.4.25+commit.59dbf8f1.Emscripten.clang"
  },
  "schemaVersion": "3.4.16",
  "updatedAt": "2024-10-24T03:13:08.850Z",
  "devdoc": {
    "methods": {
      "isOwner()": {
        "return": "true if `msg.sender` is the owner of the contract."
      },
      "owner()": {
        "return": "the address of the owner."
      },
      "renounceOwnership()": {
        "details": "Allows the current owner to relinquish control of the contract."
      },
      "transferOwnership(address)": {
        "details": "Allows the current owner to transfer control of the contract to a newOwner.",
        "params": {
          "newOwner": "The address to transfer ownership to."
        }
      }
    }
  },
  "userdoc": {
    "methods": {
      "renounceOwnership()": {
        "notice": "Renouncing to ownership will leave the contract without an owner. It will not be possible to call the functions with the `onlyOwner` modifier anymore."
      }
    }
  }
}